{
  "contractName": "AirdropForSwapsSnapshot",
  "abi": [
    {
      "inputs": [
        {
          "internalType": "contract IERC20",
          "name": "_token",
          "type": "address"
        },
        {
          "internalType": "address",
          "name": "_tokenWallet",
          "type": "address"
        },
        {
          "internalType": "uint256",
          "name": "_airdropMinAmount",
          "type": "uint256"
        },
        {
          "internalType": "uint256",
          "name": "_airdropMaxAmount",
          "type": "uint256"
        },
        {
          "internalType": "address",
          "name": "_airdropForHoldDAOAddress",
          "type": "address"
        }
      ],
      "stateMutability": "nonpayable",
      "type": "constructor"
    },
    {
      "anonymous": false,
      "inputs": [
        {
          "indexed": true,
          "internalType": "address",
          "name": "previousOwner",
          "type": "address"
        },
        {
          "indexed": true,
          "internalType": "address",
          "name": "newOwner",
          "type": "address"
        }
      ],
      "name": "OwnershipTransferred",
      "type": "event"
    },
    {
      "anonymous": false,
      "inputs": [
        {
          "indexed": false,
          "internalType": "address",
          "name": "wallet",
          "type": "address"
        },
        {
          "indexed": false,
          "internalType": "address",
          "name": "account",
          "type": "address"
        },
        {
          "indexed": false,
          "internalType": "uint256",
          "name": "amount",
          "type": "uint256"
        }
      ],
      "name": "transferToken",
      "type": "event"
    },
    {
      "inputs": [
        {
          "internalType": "address",
          "name": "",
          "type": "address"
        }
      ],
      "name": "airdropList",
      "outputs": [
        {
          "internalType": "address",
          "name": "token",
          "type": "address"
        },
        {
          "internalType": "uint256",
          "name": "airdropAmount",
          "type": "uint256"
        },
        {
          "internalType": "uint256",
          "name": "daoBalance",
          "type": "uint256"
        },
        {
          "internalType": "uint256",
          "name": "swappedAmount",
          "type": "uint256"
        },
        {
          "internalType": "bool",
          "name": "isClaim",
          "type": "bool"
        }
      ],
      "stateMutability": "view",
      "type": "function",
      "constant": true
    },
    {
      "inputs": [],
      "name": "airdropMaxAmount",
      "outputs": [
        {
          "internalType": "uint256",
          "name": "",
          "type": "uint256"
        }
      ],
      "stateMutability": "view",
      "type": "function",
      "constant": true
    },
    {
      "inputs": [],
      "name": "airdropMinAmount",
      "outputs": [
        {
          "internalType": "uint256",
          "name": "",
          "type": "uint256"
        }
      ],
      "stateMutability": "view",
      "type": "function",
      "constant": true
    },
    {
      "inputs": [],
      "name": "checkTransferSwitch",
      "outputs": [
        {
          "internalType": "bool",
          "name": "",
          "type": "bool"
        }
      ],
      "stateMutability": "view",
      "type": "function",
      "constant": true
    },
    {
      "inputs": [],
      "name": "owner",
      "outputs": [
        {
          "internalType": "address",
          "name": "",
          "type": "address"
        }
      ],
      "stateMutability": "view",
      "type": "function",
      "constant": true
    },
    {
      "inputs": [],
      "name": "renounceOwnership",
      "outputs": [],
      "stateMutability": "nonpayable",
      "type": "function"
    },
    {
      "inputs": [],
      "name": "token",
      "outputs": [
        {
          "internalType": "contract IERC20",
          "name": "",
          "type": "address"
        }
      ],
      "stateMutability": "view",
      "type": "function",
      "constant": true
    },
    {
      "inputs": [],
      "name": "tokenWallet",
      "outputs": [
        {
          "internalType": "address",
          "name": "",
          "type": "address"
        }
      ],
      "stateMutability": "view",
      "type": "function",
      "constant": true
    },
    {
      "inputs": [
        {
          "internalType": "address",
          "name": "newOwner",
          "type": "address"
        }
      ],
      "name": "transferOwnership",
      "outputs": [],
      "stateMutability": "nonpayable",
      "type": "function"
    },
    {
      "inputs": [
        {
          "internalType": "uint256",
          "name": "amount",
          "type": "uint256"
        }
      ],
      "name": "setAirdropMinAmount",
      "outputs": [],
      "stateMutability": "nonpayable",
      "type": "function"
    },
    {
      "inputs": [
        {
          "internalType": "uint256",
          "name": "amount",
          "type": "uint256"
        }
      ],
      "name": "setAirdropMaxAmount",
      "outputs": [],
      "stateMutability": "nonpayable",
      "type": "function"
    },
    {
      "inputs": [],
      "name": "openCheckTransferSwitch",
      "outputs": [],
      "stateMutability": "nonpayable",
      "type": "function"
    },
    {
      "inputs": [],
      "name": "closeCheckTransferSwitch",
      "outputs": [],
      "stateMutability": "nonpayable",
      "type": "function"
    },
    {
      "inputs": [
        {
          "components": [
            {
              "internalType": "address",
              "name": "token",
              "type": "address"
            },
            {
              "internalType": "uint256",
              "name": "daoBalance",
              "type": "uint256"
            },
            {
              "internalType": "uint256",
              "name": "swappedAmount",
              "type": "uint256"
            }
          ],
          "internalType": "struct AirdropForSwapsSnapshot.AirdropListItem[]",
          "name": "list",
          "type": "tuple[]"
        }
      ],
      "name": "updateAirdropList",
      "outputs": [],
      "stateMutability": "nonpayable",
      "type": "function"
    },
    {
      "inputs": [
        {
          "internalType": "address",
          "name": "account",
          "type": "address"
        }
      ],
      "name": "checkIsClaim",
      "outputs": [
        {
          "internalType": "bool",
          "name": "",
          "type": "bool"
        }
      ],
      "stateMutability": "view",
      "type": "function",
      "constant": true
    },
    {
      "inputs": [],
      "name": "receiveAirdrop",
      "outputs": [],
      "stateMutability": "nonpayable",
      "type": "function"
    },
    {
      "inputs": [
        {
          "internalType": "address payable",
          "name": "recipientToken",
          "type": "address"
        }
      ],
      "name": "killSelf",
      "outputs": [],
      "stateMutability": "nonpayable",
      "type": "function"
    }
  ],
  "bytecode": "0x60806040526001600660006101000a81548160ff0219169083151502179055503480156200002c57600080fd5b5060405162002cc238038062002cc28339818101604052810190620000529190620003fe565b6200007262000066620002ed60201b60201c565b620002f560201b60201c565b600073ffffffffffffffffffffffffffffffffffffffff168573ffffffffffffffffffffffffffffffffffffffff161415620000e5576040517f08c379a0000000000000000000000000000000000000000000000000000000008152600401620000dc906200053e565b60405180910390fd5b600073ffffffffffffffffffffffffffffffffffffffff168473ffffffffffffffffffffffffffffffffffffffff16141562000158576040517f08c379a00000000000000000000000000000000000000000000000000000000081526004016200014f9062000560565b60405180910390fd5b818311156200019e576040517f08c379a000000000000000000000000000000000000000000000000000000000815260040162000195906200051c565b60405180910390fd5b600073ffffffffffffffffffffffffffffffffffffffff168173ffffffffffffffffffffffffffffffffffffffff16141562000211576040517f08c379a0000000000000000000000000000000000000000000000000000000008152600401620002089062000582565b60405180910390fd5b84600260006101000a81548173ffffffffffffffffffffffffffffffffffffffff021916908373ffffffffffffffffffffffffffffffffffffffff16021790555083600360006101000a81548173ffffffffffffffffffffffffffffffffffffffff021916908373ffffffffffffffffffffffffffffffffffffffff160217905550826004819055508160058190555080600660016101000a81548173ffffffffffffffffffffffffffffffffffffffff021916908373ffffffffffffffffffffffffffffffffffffffff1602179055505050505050620007b7565b600033905090565b60008060009054906101000a900473ffffffffffffffffffffffffffffffffffffffff169050816000806101000a81548173ffffffffffffffffffffffffffffffffffffffff021916908373ffffffffffffffffffffffffffffffffffffffff1602179055508173ffffffffffffffffffffffffffffffffffffffff168173ffffffffffffffffffffffffffffffffffffffff167f8be0079c531659141344cd1fd0a4f28419497f9722a3daafe3b4186f6b6457e060405160405180910390a35050565b600081519050620003ca8162000769565b92915050565b600081519050620003e18162000783565b92915050565b600081519050620003f8816200079d565b92915050565b600080600080600060a086880312156200041757600080fd5b60006200042788828901620003d0565b95505060206200043a88828901620003b9565b94505060406200044d88828901620003e7565b93505060606200046088828901620003e7565b92505060806200047388828901620003b9565b9150509295509295909350565b60006200048f605083620005a4565b91506200049c8262000607565b606082019050919050565b6000620004b6602683620005a4565b9150620004c3826200067c565b604082019050919050565b6000620004dd602d83620005a4565b9150620004ea82620006cb565b604082019050919050565b600062000504602f83620005a4565b915062000511826200071a565b604082019050919050565b60006020820190508181036000830152620005378162000480565b9050919050565b600060208201905081810360008301526200055981620004a7565b9050919050565b600060208201905081810360008301526200057b81620004ce565b9050919050565b600060208201905081810360008301526200059d81620004f5565b9050919050565b600082825260208201905092915050565b6000620005c282620005dd565b9050919050565b6000620005d682620005b5565b9050919050565b600073ffffffffffffffffffffffffffffffffffffffff82169050919050565b6000819050919050565b7f41697264726f703a20546865206d696e696d756d2061697264726f7020616d6f60008201527f756e74206d757374206265206c657373207468616e20746865206d6178696d7560208201527f6d2061697264726f7020616d6f756e7400000000000000000000000000000000604082015250565b7f41697264726f703a2054686520746f6b656e20697320746865207a65726f206160008201527f6464726573730000000000000000000000000000000000000000000000000000602082015250565b7f41697264726f703a2054686520746f6b656e2077616c6c65742069732074686560008201527f207a65726f206164647265737300000000000000000000000000000000000000602082015250565b7f41697264726f703a2054686520636f6e747261637420746f6b656e206973207460008201527f6865207a65726f20616464726573730000000000000000000000000000000000602082015250565b6200077481620005b5565b81146200078057600080fd5b50565b6200078e81620005c9565b81146200079a57600080fd5b50565b620007a881620005fd565b8114620007b457600080fd5b50565b6124fb80620007c76000396000f3fe608060405234801561001057600080fd5b506004361061010b5760003560e01c80637b231ceb116100a2578063bff99c6c11610071578063bff99c6c14610236578063e8916fc314610254578063e9f7df9614610284578063f2fde38b146102a2578063fc0c546a146102be5761010b565b80637b231ceb146101c25780638da5cb5b146101e0578063920b366f146101fe578063ac195c681461021a5761010b565b80633a507d7d116100de5780633a507d7d1461014c57806358cf77fa14610168578063715018a61461019c578063775e884f146101a65761010b565b80630c3b65d31461011057806318f15d651461011a5780632428825d1461013857806335b0152c14610142575b600080fd5b6101186102dc565b005b610122610375565b60405161012f9190611d9a565b60405180910390f35b61014061037b565b005b61014a61061f565b005b61016660048036038101906101619190611834565b6106b8565b005b610182600480360381019061017d919061180b565b610849565b604051610193959493929190611bcf565b60405180910390f35b6101a46108ac565b005b6101c060048036038101906101bb91906118c7565b610934565b005b6101ca6109ba565b6040516101d79190611c22565b60405180910390f35b6101e86109cd565b6040516101f59190611b54565b60405180910390f35b6102186004803603810190610213919061185d565b6109f6565b005b610234600480360381019061022f91906118c7565b610de8565b005b61023e610e6e565b60405161024b9190611b54565b60405180910390f35b61026e6004803603810190610269919061180b565b610e94565b60405161027b9190611c22565b60405180910390f35b61028c611083565b6040516102999190611d9a565b60405180910390f35b6102bc60048036038101906102b7919061180b565b611089565b005b6102c6611181565b6040516102d39190611c3d565b60405180910390f35b6102e46111a7565b73ffffffffffffffffffffffffffffffffffffffff166103026109cd565b73ffffffffffffffffffffffffffffffffffffffff1614610358576040517f08c379a000000000000000000000000000000000000000000000000000000000815260040161034f90611cfa565b60405180910390fd5b6000600660006101000a81548160ff021916908315150217905550565b60055481565b6000339050600073ffffffffffffffffffffffffffffffffffffffff168173ffffffffffffffffffffffffffffffffffffffff1614156103f0576040517f08c379a00000000000000000000000000000000000000000000000000000000081526004016103e790611d7a565b60405180910390fd5b6103f981610e94565b15610439576040517f08c379a000000000000000000000000000000000000000000000000000000000815260040161043090611d3a565b60405180910390fd5b6000600160008373ffffffffffffffffffffffffffffffffffffffff1673ffffffffffffffffffffffffffffffffffffffff1681526020019081526020016000209050600073ffffffffffffffffffffffffffffffffffffffff168160000160009054906101000a900473ffffffffffffffffffffffffffffffffffffffff1673ffffffffffffffffffffffffffffffffffffffff161415610510576040517f08c379a000000000000000000000000000000000000000000000000000000000815260040161050790611c7a565b60405180910390fd5b600061051a6111af565b9050600081111561061a5780826001018190555060018260040160006101000a81548160ff0219169083151502179055506105bc600360009054906101000a900473ffffffffffffffffffffffffffffffffffffffff168483600260009054906101000a900473ffffffffffffffffffffffffffffffffffffffff1673ffffffffffffffffffffffffffffffffffffffff16611227909392919063ffffffff16565b7ff5537ede4763d97b5cf86d9eb6ae77ccd8560b8b2d4bd4503537c6b2996a7a9b600360009054906101000a900473ffffffffffffffffffffffffffffffffffffffff16848360405161061193929190611b6f565b60405180910390a15b505050565b6106276111a7565b73ffffffffffffffffffffffffffffffffffffffff166106456109cd565b73ffffffffffffffffffffffffffffffffffffffff161461069b576040517f08c379a000000000000000000000000000000000000000000000000000000000815260040161069290611cfa565b60405180910390fd5b6001600660006101000a81548160ff021916908315150217905550565b6106c06111a7565b73ffffffffffffffffffffffffffffffffffffffff166106de6109cd565b73ffffffffffffffffffffffffffffffffffffffff1614610734576040517f08c379a000000000000000000000000000000000000000000000000000000000815260040161072b90611cfa565b60405180910390fd5b6000600260009054906101000a900473ffffffffffffffffffffffffffffffffffffffff1673ffffffffffffffffffffffffffffffffffffffff166370a08231306040518263ffffffff1660e01b81526004016107919190611b54565b60206040518083038186803b1580156107a957600080fd5b505afa1580156107bd573d6000803e3d6000fd5b505050506040513d601f19601f820116820180604052508101906107e191906118f0565b90506108308282600260009054906101000a900473ffffffffffffffffffffffffffffffffffffffff1673ffffffffffffffffffffffffffffffffffffffff166112b09092919063ffffffff16565b8173ffffffffffffffffffffffffffffffffffffffff16ff5b60016020528060005260406000206000915090508060000160009054906101000a900473ffffffffffffffffffffffffffffffffffffffff16908060010154908060020154908060030154908060040160009054906101000a900460ff16905085565b6108b46111a7565b73ffffffffffffffffffffffffffffffffffffffff166108d26109cd565b73ffffffffffffffffffffffffffffffffffffffff1614610928576040517f08c379a000000000000000000000000000000000000000000000000000000000815260040161091f90611cfa565b60405180910390fd5b6109326000611336565b565b61093c6111a7565b73ffffffffffffffffffffffffffffffffffffffff1661095a6109cd565b73ffffffffffffffffffffffffffffffffffffffff16146109b0576040517f08c379a00000000000000000000000000000000000000000000000000000000081526004016109a790611cfa565b60405180910390fd5b8060058190555050565b600660009054906101000a900460ff1681565b60008060009054906101000a900473ffffffffffffffffffffffffffffffffffffffff16905090565b6109fe6111a7565b73ffffffffffffffffffffffffffffffffffffffff16610a1c6109cd565b73ffffffffffffffffffffffffffffffffffffffff1614610a72576040517f08c379a0000000000000000000000000000000000000000000000000000000008152600401610a6990611cfa565b60405180910390fd5b6000815111610ab6576040517f08c379a0000000000000000000000000000000000000000000000000000000008152600401610aad90611cda565b60405180910390fd5b60005b8151811015610de4576000828281518110610afd577f4e487b7100000000000000000000000000000000000000000000000000000000600052603260045260246000fd5b60200260200101519050600073ffffffffffffffffffffffffffffffffffffffff16816000015173ffffffffffffffffffffffffffffffffffffffff1614158015610b4c575060008160200151115b8015610b5c575060008160400151115b15610dd0576000816000015190506000600660019054906101000a900473ffffffffffffffffffffffffffffffffffffffff1673ffffffffffffffffffffffffffffffffffffffff1663e8916fc3836040518263ffffffff1660e01b8152600401610bc79190611b54565b60206040518083038186803b158015610bdf57600080fd5b505afa158015610bf3573d6000803e3d6000fd5b505050506040513d601f19601f82011682018060405250810190610c17919061189e565b905080610dcd576000600160008473ffffffffffffffffffffffffffffffffffffffff1673ffffffffffffffffffffffffffffffffffffffff1681526020019081526020016000209050600073ffffffffffffffffffffffffffffffffffffffff168160000160009054906101000a900473ffffffffffffffffffffffffffffffffffffffff1673ffffffffffffffffffffffffffffffffffffffff161415610dcb576040518060a001604052808473ffffffffffffffffffffffffffffffffffffffff16815260200160008152602001856020015181526020018560400151815260200160001515815250600160008573ffffffffffffffffffffffffffffffffffffffff1673ffffffffffffffffffffffffffffffffffffffff16815260200190815260200160002060008201518160000160006101000a81548173ffffffffffffffffffffffffffffffffffffffff021916908373ffffffffffffffffffffffffffffffffffffffff16021790555060208201518160010155604082015181600201556060820151816003015560808201518160040160006101000a81548160ff0219169083151502179055509050505b505b50505b508080610ddc906120e5565b915050610ab9565b5050565b610df06111a7565b73ffffffffffffffffffffffffffffffffffffffff16610e0e6109cd565b73ffffffffffffffffffffffffffffffffffffffff1614610e64576040517f08c379a0000000000000000000000000000000000000000000000000000000008152600401610e5b90611cfa565b60405180910390fd5b8060048190555050565b600360009054906101000a900473ffffffffffffffffffffffffffffffffffffffff1681565b600080600660019054906101000a900473ffffffffffffffffffffffffffffffffffffffff1673ffffffffffffffffffffffffffffffffffffffff1663e8916fc3846040518263ffffffff1660e01b8152600401610ef29190611b54565b60206040518083038186803b158015610f0a57600080fd5b505afa158015610f1e573d6000803e3d6000fd5b505050506040513d601f19601f82011682018060405250810190610f42919061189e565b90508015610f53578091505061107e565b6000600160008573ffffffffffffffffffffffffffffffffffffffff1673ffffffffffffffffffffffffffffffffffffffff1681526020019081526020016000206040518060a00160405290816000820160009054906101000a900473ffffffffffffffffffffffffffffffffffffffff1673ffffffffffffffffffffffffffffffffffffffff1673ffffffffffffffffffffffffffffffffffffffff1681526020016001820154815260200160028201548152602001600382015481526020016004820160009054906101000a900460ff1615151515815250509050600073ffffffffffffffffffffffffffffffffffffffff16816000015173ffffffffffffffffffffffffffffffffffffffff1614156110745760009250505061107e565b8060800151925050505b919050565b60045481565b6110916111a7565b73ffffffffffffffffffffffffffffffffffffffff166110af6109cd565b73ffffffffffffffffffffffffffffffffffffffff1614611105576040517f08c379a00000000000000000000000000000000000000000000000000000000081526004016110fc90611cfa565b60405180910390fd5b600073ffffffffffffffffffffffffffffffffffffffff168173ffffffffffffffffffffffffffffffffffffffff161415611175576040517f08c379a000000000000000000000000000000000000000000000000000000000815260040161116c90611c9a565b60405180910390fd5b61117e81611336565b50565b600260009054906101000a900473ffffffffffffffffffffffffffffffffffffffff1681565b600033905090565b6000600660009054906101000a900460ff166111ce5760009050611224565b60006111db6005546113fa565b905060045481116111f0576004549050611201565b6005548111156112005760055490505b5b60006012600a6112119190611e8b565b8261121c9190611fa9565b905080925050505b90565b6112aa846323b872dd60e01b85858560405160240161124893929190611b6f565b604051602081830303815290604052907bffffffffffffffffffffffffffffffffffffffffffffffffffffffff19166020820180517bffffffffffffffffffffffffffffffffffffffffffffffffffffffff838183161783525050505061143f565b50505050565b6113318363a9059cbb60e01b84846040516024016112cf929190611ba6565b604051602081830303815290604052907bffffffffffffffffffffffffffffffffffffffffffffffffffffffff19166020820180517bffffffffffffffffffffffffffffffffffffffffffffffffffffffff838183161783525050505061143f565b505050565b60008060009054906101000a900473ffffffffffffffffffffffffffffffffffffffff169050816000806101000a81548173ffffffffffffffffffffffffffffffffffffffff021916908373ffffffffffffffffffffffffffffffffffffffff1602179055508173ffffffffffffffffffffffffffffffffffffffff168173ffffffffffffffffffffffffffffffffffffffff167f8be0079c531659141344cd1fd0a4f28419497f9722a3daafe3b4186f6b6457e060405160405180910390a35050565b6000804442604051602001611410929190611b28565b6040516020818303038152906040528051906020012060001c905082816114379190612138565b915050919050565b60006114a1826040518060400160405280602081526020017f5361666545524332303a206c6f772d6c6576656c2063616c6c206661696c65648152508573ffffffffffffffffffffffffffffffffffffffff166115069092919063ffffffff16565b905060008151111561150157808060200190518101906114c1919061189e565b611500576040517f08c379a00000000000000000000000000000000000000000000000000000000081526004016114f790611d5a565b60405180910390fd5b5b505050565b6060611515848460008561151e565b90509392505050565b606082471015611563576040517f08c379a000000000000000000000000000000000000000000000000000000000815260040161155a90611cba565b60405180910390fd5b61156c85611632565b6115ab576040517f08c379a00000000000000000000000000000000000000000000000000000000081526004016115a290611d1a565b60405180910390fd5b6000808673ffffffffffffffffffffffffffffffffffffffff1685876040516115d49190611b11565b60006040518083038185875af1925050503d8060008114611611576040519150601f19603f3d011682016040523d82523d6000602084013e611616565b606091505b5091509150611626828286611645565b92505050949350505050565b600080823b905060008111915050919050565b60608315611655578290506116a5565b6000835111156116685782518084602001fd5b816040517f08c379a000000000000000000000000000000000000000000000000000000000815260040161169c9190611c58565b60405180910390fd5b9392505050565b60006116bf6116ba84611dda565b611db5565b905080838252602082019050828560608602820111156116de57600080fd5b60005b8581101561170e57816116f48882611781565b8452602084019350606083019250506001810190506116e1565b5050509392505050565b60008135905061172781612469565b92915050565b60008135905061173c81612480565b92915050565b600082601f83011261175357600080fd5b81356117638482602086016116ac565b91505092915050565b60008151905061177b81612497565b92915050565b60006060828403121561179357600080fd5b61179d6060611db5565b905060006117ad84828501611718565b60008301525060206117c1848285016117e1565b60208301525060406117d5848285016117e1565b60408301525092915050565b6000813590506117f0816124ae565b92915050565b600081519050611805816124ae565b92915050565b60006020828403121561181d57600080fd5b600061182b84828501611718565b91505092915050565b60006020828403121561184657600080fd5b60006118548482850161172d565b91505092915050565b60006020828403121561186f57600080fd5b600082013567ffffffffffffffff81111561188957600080fd5b61189584828501611742565b91505092915050565b6000602082840312156118b057600080fd5b60006118be8482850161176c565b91505092915050565b6000602082840312156118d957600080fd5b60006118e7848285016117e1565b91505092915050565b60006020828403121561190257600080fd5b6000611910848285016117f6565b91505092915050565b61192281612003565b82525050565b61193181612027565b82525050565b600061194282611e06565b61194c8185611e1c565b935061195c818560208601612081565b80840191505092915050565b6119718161205d565b82525050565b600061198282611e11565b61198c8185611e27565b935061199c818560208601612081565b6119a5816121f6565b840191505092915050565b60006119bd602e83611e27565b91506119c882612214565b604082019050919050565b60006119e0602683611e27565b91506119eb82612263565b604082019050919050565b6000611a03602683611e27565b9150611a0e826122b2565b604082019050919050565b6000611a26601b83611e27565b9150611a3182612301565b602082019050919050565b6000611a49602083611e27565b9150611a548261232a565b602082019050919050565b6000611a6c601d83611e27565b9150611a7782612353565b602082019050919050565b6000611a8f603583611e27565b9150611a9a8261237c565b604082019050919050565b6000611ab2602a83611e27565b9150611abd826123cb565b604082019050919050565b6000611ad5602883611e27565b9150611ae08261241a565b604082019050919050565b611af481612053565b82525050565b611b0b611b0682612053565b61212e565b82525050565b6000611b1d8284611937565b915081905092915050565b6000611b348285611afa565b602082019150611b448284611afa565b6020820191508190509392505050565b6000602082019050611b696000830184611919565b92915050565b6000606082019050611b846000830186611919565b611b916020830185611919565b611b9e6040830184611aeb565b949350505050565b6000604082019050611bbb6000830185611919565b611bc86020830184611aeb565b9392505050565b600060a082019050611be46000830188611919565b611bf16020830187611aeb565b611bfe6040830186611aeb565b611c0b6060830185611aeb565b611c186080830184611928565b9695505050505050565b6000602082019050611c376000830184611928565b92915050565b6000602082019050611c526000830184611968565b92915050565b60006020820190508181036000830152611c728184611977565b905092915050565b60006020820190508181036000830152611c93816119b0565b9050919050565b60006020820190508181036000830152611cb3816119d3565b9050919050565b60006020820190508181036000830152611cd3816119f6565b9050919050565b60006020820190508181036000830152611cf381611a19565b9050919050565b60006020820190508181036000830152611d1381611a3c565b9050919050565b60006020820190508181036000830152611d3381611a5f565b9050919050565b60006020820190508181036000830152611d5381611a82565b9050919050565b60006020820190508181036000830152611d7381611aa5565b9050919050565b60006020820190508181036000830152611d9381611ac8565b9050919050565b6000602082019050611daf6000830184611aeb565b92915050565b6000611dbf611dd0565b9050611dcb82826120b4565b919050565b6000604051905090565b600067ffffffffffffffff821115611df557611df46121c7565b5b602082029050602081019050919050565b600081519050919050565b600081519050919050565b600081905092915050565b600082825260208201905092915050565b6000808291508390505b6001851115611e8257808604811115611e5e57611e5d612169565b5b6001851615611e6d5780820291505b8081029050611e7b85612207565b9450611e42565b94509492505050565b6000611e9682612053565b9150611ea183612053565b9250611ece7fffffffffffffffffffffffffffffffffffffffffffffffffffffffffffffffff8484611ed6565b905092915050565b600082611ee65760019050611fa2565b81611ef45760009050611fa2565b8160018114611f0a5760028114611f1457611f43565b6001915050611fa2565b60ff841115611f2657611f25612169565b5b8360020a915084821115611f3d57611f3c612169565b5b50611fa2565b5060208310610133831016604e8410600b8410161715611f785782820a905083811115611f7357611f72612169565b5b611fa2565b611f858484846001611e38565b92509050818404811115611f9c57611f9b612169565b5b81810290505b9392505050565b6000611fb482612053565b9150611fbf83612053565b9250817fffffffffffffffffffffffffffffffffffffffffffffffffffffffffffffffff0483118215151615611ff857611ff7612169565b5b828202905092915050565b600061200e82612033565b9050919050565b600061202082612033565b9050919050565b60008115159050919050565b600073ffffffffffffffffffffffffffffffffffffffff82169050919050565b6000819050919050565b60006120688261206f565b9050919050565b600061207a82612033565b9050919050565b60005b8381101561209f578082015181840152602081019050612084565b838111156120ae576000848401525b50505050565b6120bd826121f6565b810181811067ffffffffffffffff821117156120dc576120db6121c7565b5b80604052505050565b60006120f082612053565b91507fffffffffffffffffffffffffffffffffffffffffffffffffffffffffffffffff82141561212357612122612169565b5b600182019050919050565b6000819050919050565b600061214382612053565b915061214e83612053565b92508261215e5761215d612198565b5b828206905092915050565b7f4e487b7100000000000000000000000000000000000000000000000000000000600052601160045260246000fd5b7f4e487b7100000000000000000000000000000000000000000000000000000000600052601260045260246000fd5b7f4e487b7100000000000000000000000000000000000000000000000000000000600052604160045260246000fd5b6000601f19601f8301169050919050565b60008160011c9050919050565b7f41697264726f703a20546865206163636f756e74206973206e6f7420696e207460008201527f68652061697264726f704c697374000000000000000000000000000000000000602082015250565b7f4f776e61626c653a206e6577206f776e657220697320746865207a65726f206160008201527f6464726573730000000000000000000000000000000000000000000000000000602082015250565b7f416464726573733a20696e73756666696369656e742062616c616e636520666f60008201527f722063616c6c0000000000000000000000000000000000000000000000000000602082015250565b7f41697264726f703a206c697374206172726179206973206e756c6c0000000000600082015250565b7f4f776e61626c653a2063616c6c6572206973206e6f7420746865206f776e6572600082015250565b7f416464726573733a2063616c6c20746f206e6f6e2d636f6e7472616374000000600082015250565b7f41697264726f703a20546865206163636f756e742068617320616c726561647960008201527f207265636569766564207468652061697264726f700000000000000000000000602082015250565b7f5361666545524332303a204552433230206f7065726174696f6e20646964206e60008201527f6f74207375636365656400000000000000000000000000000000000000000000602082015250565b7f41697264726f703a20546865206163636f756e7420697320746865207a65726f60008201527f2061646472657373000000000000000000000000000000000000000000000000602082015250565b61247281612003565b811461247d57600080fd5b50565b61248981612015565b811461249457600080fd5b50565b6124a081612027565b81146124ab57600080fd5b50565b6124b781612053565b81146124c257600080fd5b5056fea26469706673582212200845cfd329cb0aecfd99486983a4061f84e4062db37a43d01bcc1b682be9592164736f6c63430008040033",
  "immutableReferences": {},
  "source": "// SPDX-License-Identifier: MIT\r\npragma solidity ^0.8.0;\r\n\r\nimport \"@openzeppelin/contracts/access/Ownable.sol\";\r\nimport \"@openzeppelin/contracts/utils/math/SafeMath.sol\";\r\nimport \"@openzeppelin/contracts/token/ERC20/utils/SafeERC20.sol\";\r\n\r\ninterface AirdropForHoldDAO {\r\n    function checkIsClaim(address account) external view returns (bool);\r\n}\r\n\r\ncontract AirdropForSwapsSnapshot is Ownable {\r\n    using SafeMath for uint256;\r\n    using SafeERC20 for IERC20;\r\n\r\n    event transferToken(address wallet, address account, uint256 amount);\r\n\r\n    struct AirdropListItem {\r\n        address token;\r\n        uint256 daoBalance;\r\n        uint256 swappedAmount;\r\n    }\r\n\r\n    struct AirdropInfo {\r\n        address token;\r\n        uint256 airdropAmount;\r\n        uint256 daoBalance;\r\n        uint256 swappedAmount;\r\n        bool isClaim;\r\n    }\r\n    mapping(address => AirdropInfo) public airdropList;\r\n\r\n    IERC20 public token;\r\n    address public tokenWallet;\r\n    uint256 public airdropMinAmount;\r\n    uint256 public airdropMaxAmount;\r\n\r\n    bool public checkTransferSwitch = true;\r\n\r\n    AirdropForHoldDAO private _airdropForHoldDAOContract;\r\n\r\n    constructor(\r\n        IERC20 _token,\r\n        address _tokenWallet,\r\n        uint256 _airdropMinAmount,\r\n        uint256 _airdropMaxAmount,\r\n        address _airdropForHoldDAOAddress\r\n    ) Ownable() {\r\n        require(address(_token) != address(0), \"Airdrop: The token is the zero address\");\r\n        require(_tokenWallet != address(0), \"Airdrop: The token wallet is the zero address\");\r\n        require(_airdropMinAmount <= _airdropMaxAmount, \"Airdrop: The minimum airdrop amount must be less than the maximum airdrop amount\");\r\n        require(_airdropForHoldDAOAddress != address(0), \"Airdrop: The contract token is the zero address\");\r\n\r\n        token = _token;\r\n        tokenWallet = _tokenWallet;\r\n        airdropMinAmount = _airdropMinAmount;\r\n        airdropMaxAmount = _airdropMaxAmount;\r\n        _airdropForHoldDAOContract = AirdropForHoldDAO(_airdropForHoldDAOAddress);\r\n    }\r\n\r\n    // set airdropMinAmount\r\n    function setAirdropMinAmount(uint256 amount) public onlyOwner {\r\n        airdropMinAmount = amount;\r\n    }\r\n    // set airdropMaxAmount\r\n    function setAirdropMaxAmount(uint256 amount) public onlyOwner {\r\n        airdropMaxAmount = amount;\r\n    }\r\n    // open and close checkTransferSwitch\r\n    function openCheckTransferSwitch() public onlyOwner {\r\n        checkTransferSwitch = true;\r\n    }\r\n    function closeCheckTransferSwitch() public onlyOwner {\r\n        checkTransferSwitch = false;\r\n    }\r\n\r\n    /**********  *********/\r\n    // \r\n    function updateAirdropList(AirdropListItem[] memory list) public onlyOwner {\r\n        require(list.length > 0, \"Airdrop: list array is null\");\r\n        for (uint i = 0; i < list.length; i++) {\r\n            AirdropListItem memory record = list[i];\r\n            if (record.token != address(0) && record.daoBalance > 0 && record.swappedAmount > 0) {\r\n                address receiveAccount = record.token;\r\n                bool tempIsClaim = _airdropForHoldDAOContract.checkIsClaim(receiveAccount);\r\n                if (!tempIsClaim) {\r\n                    AirdropInfo storage info = airdropList[receiveAccount];\r\n                    if (info.token == address(0)) {\r\n                        airdropList[receiveAccount] = AirdropInfo({\r\n                            token: receiveAccount,\r\n                            airdropAmount: 0,\r\n                            daoBalance: record.daoBalance,\r\n                            swappedAmount: record.swappedAmount,\r\n                            isClaim: false\r\n                        });\r\n                    }\r\n                }\r\n            }\r\n        }\r\n    }\r\n\r\n    /**\r\n     * @dev Check is claim.\r\n     * @param account the address\r\n     * @return bool\r\n     */\r\n    function checkIsClaim(address account) public view returns (bool) {\r\n        bool tempIsClaim = _airdropForHoldDAOContract.checkIsClaim(account);\r\n        if (tempIsClaim) {\r\n            return tempIsClaim;\r\n        }\r\n        AirdropInfo memory info = airdropList[account];\r\n        if (info.token == address(0)) {\r\n            return false;\r\n        }\r\n        return info.isClaim;\r\n    }\r\n\r\n    /**\r\n     * @dev Receive airdrop\r\n     */\r\n    function receiveAirdrop() public {\r\n        address currentAccount = msg.sender;\r\n        require(currentAccount != address(0), \"Airdrop: The account is the zero address\");\r\n        require(!checkIsClaim(currentAccount), \"Airdrop: The account has already received the airdrop\");\r\n\r\n        AirdropInfo storage info = airdropList[currentAccount];\r\n        require(info.token != address(0), \"Airdrop: The account is not in the airdropList\");\r\n\r\n        // actual airdrop amount\r\n        uint256 actualAmount = _getActualAmount();\r\n        if (actualAmount > 0) {\r\n            info.airdropAmount = actualAmount;\r\n            info.isClaim = true;\r\n            // transfer token to receive account\r\n            token.safeTransferFrom(tokenWallet, currentAccount, actualAmount);\r\n            emit transferToken(tokenWallet, currentAccount, actualAmount);\r\n        }\r\n    }\r\n\r\n    /**\r\n     * @dev Get actual amount\r\n     */\r\n    function _getActualAmount() internal view returns(uint256) {\r\n        if (!checkTransferSwitch) {\r\n            return 0;\r\n        }\r\n        // random to airdrop amount\r\n        uint256 randomAmount = _rand(airdropMaxAmount);\r\n        if (randomAmount <= airdropMinAmount) {\r\n            randomAmount = airdropMinAmount;\r\n        } else if (randomAmount > airdropMaxAmount) {\r\n            randomAmount = airdropMaxAmount;\r\n        }\r\n        uint256 actualAmount = randomAmount * (10**uint256(18));\r\n        return actualAmount;\r\n    }\r\n\r\n    /**\r\n     * @dev Generate random numbers\r\n     * @param length Random number range\r\n     */\r\n    function _rand(uint256 length) internal view returns(uint256) {\r\n        uint256 random = uint256(keccak256(abi.encodePacked(block.difficulty, block.timestamp)));\r\n        return random % length;\r\n    }\r\n\r\n    function killSelf(address payable recipientToken) public onlyOwner {\r\n        uint256 contractBalance = token.balanceOf(address(this));\r\n        token.safeTransfer(recipientToken, contractBalance);\r\n\r\n        selfdestruct(recipientToken);\r\n    }\r\n}\r\n",
  "sourcePath": "D:\\Workspaces\\DaoswapDex\\daoswapdex\\core-airdrop\\contracts\\AirdropForSwapsSnapshot.sol",
  "compiler": {
    "name": "solc",
    "version": "0.8.4+commit.c7e474f2.Emscripten.clang"
  },
  "schemaVersion": "3.4.3",
  "updatedAt": "2021-10-21T01:13:31.427Z",
  "networkType": "ethereum",
  "devdoc": {
    "kind": "dev",
    "methods": {
      "checkIsClaim(address)": {
        "details": "Check is claim.",
        "params": {
          "account": "the address"
        },
        "returns": {
          "_0": "bool"
        }
      },
      "owner()": {
        "details": "Returns the address of the current owner."
      },
      "receiveAirdrop()": {
        "details": "Receive airdrop"
      },
      "renounceOwnership()": {
        "details": "Leaves the contract without owner. It will not be possible to call `onlyOwner` functions anymore. Can only be called by the current owner. NOTE: Renouncing ownership will leave the contract without an owner, thereby removing any functionality that is only available to the owner."
      },
      "transferOwnership(address)": {
        "details": "Transfers ownership of the contract to a new account (`newOwner`). Can only be called by the current owner."
      }
    },
    "version": 1
  },
  "userdoc": {
    "kind": "user",
    "methods": {},
    "version": 1
  }
}